:1000000034EF00F013501502F3CF01F0F4CF00F0FD
:100010001602F350002614501502F3500020026E11
:100020009EEF00F0016A026A006A036A165002E15C
:10003000155018E0100E176ED8901336143600368F
:1000400003361650035C02E11550005C07E31550BF
:10005000005ED8A003061650035ED8800136023633
:10006000172EEAD7B6EF00F0F86AD09EC150C00B49
:100070000F09C16E070EB46E600ED36E400E9B6EFC
:10008000D350C150C00B0F09C16E000E926E9690F6
:10009000969296949696700E936EFF0E946E956E51
:1000A000056A066A0B6A946882CF0CF0956883CF64
:1000B0000DF00E6A938881A806D0010E076E086ABB
:1000C000096A0A6A1AD0938A81AA06D0076A010EC1
:1000D000086E096A0A6A11D0938C81AC06D0076A4F
:1000E000086A010E096E0A6A08D0938E81AE05D0A7
:1000F000076A086A096A010E0A6E075204E0055091
:1001000006240B6E38D0085206E00D5203E005506D
:10011000065C0B6E30D0095214E0106A06C00FF076
:10012000036A05C011F003C012F010C014F006C03D
:1001300013F003C016F005C015F064D701C00BF032
:100140001AD00A5218E00D5214E0106A06C00FF0DF
:10015000036A05C011F003C012F010C014F006C00D
:1001600013F003C016F005C015F05CD701C00BF00A
:0A01700002D0010E0E6E97D70300B7
:020000040030CA
:0E0000000003181E000581000FC00FE00F4026
:00000001FF
;PIC18F4620
;CRC=D442  CREATED="03-abr.-18 19:12"
